:020000040800F2
:10000000000001201992000831AB000879AB00080C
:1000100099AB0008A1AB0008A9AB000800000000E4
:10002000000000000000000000000000B1AB00086C
:10003000BDAB00080000000001B60008E1CD0008DB
:10004000619200086192000861920008C9AB000843
:10005000619200086192000825AC000861920008D6
:100060006192000839AC00086192000861920008B2
:100070006192000861920008619200086192000894
:100080006192000861920008619200086192000884
:100090006192000861920008619200084DAC00086E
:1000A0006192000861920008619200086192000864
:1000B000D9A90008619200086192000861920008C5
:1000C0006192000861920008619200086192000844
:1000D0006192000861920008619200086192000834
:1000E00011AC00086192000861AC0008000000003B
:1000F0000000000000000000000000000000000000
:1001000000000000000000006192000861920008F9
:1001100061920008619200086192000861920008F3
:1001200061920008619200086192000861920008E3
:1001300061920008E9AB0008619200086192000832
:1001400061920008619200086192000899AC000871
:10015000000000000000000000000000000000009F
:10016000000000000000000000000000000000008F
:10017000000000000000000000000000000000007F
:10018000000000000000000000000000000000006F
:10019000000000000000000000000000000000005F
:1001A000000000000000000000000000000000004F
:1001B000000000000000000000000000000000003F
:1001C000000000000000000000000000000000002F
:1001D000000000000000000000000000000000001F
:0401E0005FF8E0F1F3
:1001E40010B5054C237833B9044B13B10448AFF36D
:1001F40000800123237010BDB00400200000000023
:1002040098F40008084B10B51BB108490848AFF32F
:1002140000800848036803B910BD074B002BFBD0CE
:10022400BDE81040184700BF00000000B4040020DF
:1002340098F40008AC0400200000000003685A0091
:100244004CBF43F0004323F000431844704700BF01
:1002540061B32DE9F84F01F1FF3A90460646D146C5
:10026400002707EB090404EBD4746410E50071194A
:100274000846FFF7E3FFA245834605F10800304432
:1002840009D0FFF7DBFFC34500F1FF3005D8404537
:1002940009D2671CE5E7C34505D9A74202D004F19A
:1002A400FF39DEE700210846BDE8F88F08467047AD
:1002B400012807D0022807D0044B00280CBF184699
:1002C400002070470248704702487047C909000877
:1002D400CD090008D109000830B5254B83B0044688
:1002E4008D1E7BB301A92846AFF3008020B301998A
:1002F4002A46FFF7ADFF0146F0B1FFF79FFF4B68B9
:10030400A064012B12D0002B01F1040021DBFFF7C4
:1003140095FF0023E06423650368002B1DDBFFF7D2
:100324008DFF00232061184603B030BD00232361F4
:100334000523184603B030BD002323610923184662
:1003440003B030BD0B490C4B0846591AC910019132
:10035400CEE70123E0642365DEE7C3F30360FFF720
:10036400A7FF0028206114BF00230923DBE700BF97
:1003740000000000F8F40008D8F50008036810B580
:10038400DA07044606D49B0700F1480009D500F0BB
:100394005BFC2368590709D51A070ED5DB0613D56C
:1003A40010BD00F049FC23685907F5D404F1D000CE
:1003B40000F052FC23681A07F0D404F5A87000F08A
:1003C40053FC2368DB06EBD404F5E870BDE8104069
:1003D40000F08EBC03680BB1184470471846704790
:1003E40009207047704700BF70B504460D4608E009
:1003F4002A6C2369626121462A460120984708280D
:1004040008D1296C2046FFF767FF06460028EFD085
:100414000EF058FF0728FBD13046296CFFF7E2FFA6
:10042400281D00F0FDFB00BF2DE9F0470646ADF5A1
:10043400727D03AD0C1D17460FCC0FC50FCC0FC535
:100444000FCC0FC594E80F0002ACD6F80C80D6F898
:10045400189085E80F0000233046216C2360FFF7D5
:100464003BFF0546002F14BF0A2709277DB1A36B64
:1004740047F010018DE810023246636401203346D0
:10048400C04778BB28460DF5727DBDE8F087236C24
:100494004FF4F072736121467AA800F041FE33698B
:1004A4007AAA314638469847889B82468DE81002DE
:1004B40039466364324633460120C04790B94FF44D
:1004C400F0727AA9204600F02BFEBAF1080F06D18B
:1004D400216C3046FFF700FF09270546C6E7BAF14D
:1004E400070F04D009200DF5727DBDE8F08728467A
:1004F400216CFFF777FF03A800F092FB406C704774
:10050400F0B5CB6BF9B00B640E1D01AD0F4604467C
:100514000FCE0FC50FCE0FC50FCE0FC596E80F0037
:100524004FF0FF3685E80F00009606E023696A461F
:10053400214698470828054608D110992046FFF718
:10054400CBFE0028F2D0092079B0F0BD6846FFF751
:1005540015FF062DF7D139462046FFF745FF00BFAA
:1005640030B4DD6BC160826119461D64002230BC69
:100574005AE700BF70B54369C6680B6426B101220F
:10058400FFF752FF0EF09EFE03690A4604460D462D
:10059400014602209847072807D0082803D1294696
:1005A4002046FFF721FF0EF08DFE3046296CFFF741
:1005B40019FF281D00F034FBC2682AB110B4CC6BBB
:1005C40000220C6410BC2FE79AE700BF704700BFFD
:1005D400836813B1014601201847704700B5042908
:1005E40007D8DFE801F00309060909000BB90F2A4F
:1005F40005D902205DF804FB01205DF804FB00EB43
:10060400820252681846019B1A605DF804FB00BF21
:1006140010B584B0002303AC0A4600941946FFF7D2
:10062400DDFF039804B010BD00B5042907D8DFE846
:1006340001F00309060909000BB90F2A05D90220A4
:100644005DF804FB01205DF804FB019900EB8202D4
:100654000968184651605DF804FB00BF10B584B00A
:1006640004AC44F8042D00230A4600941946FFF70D
:10067400DBFF04B010BD00BFF0B5D36BADF50F7D4B
:100684001364151D17AC07460E460FCD0FC40FCDCE
:100694000FC40FCD0FC495E80F004FF0FF3584E869
:1006A4000F00169511E016A86A46FFF7D7FF3146EA
:1006B40016A8B84780B9049B16AA6946082098472B
:1006C4000528044609D0092806D026996846FFF76C
:1006D40003FE0C210028E6D0092416A8FFF74EFEDD
:1006E40020460DF50F7DF0BD2DE9F04FCC6C914601
:1006F40022688BB004340D460792089400F0030B73
:100704001E46002B64D11202032307928DF8256044
:100714008DF824302B6DBBF1020F08BFAC6B13F0C6
:10072400010343D100F00800C2B203920193276889
:10073400002F3DD0022E47D02788B4F8028004341D
:10074400AB6C28F0010A0F2148469A44FFF760FF7A
:10075400824537D827F001039A4450452CBF002026
:1007640001204FEA480808F0020807F0010748EAA8
:100774000708B8F1010F41D038D3B8F1020F1DD1E9
:10078400236823F000420292BBF1000F79D130B10B
:100794000399002900F08180002A00F0A880002B32
:1007A40079DB029B013304EB8304C0E7002301934C
:1007B400022E40DDFFF714FE002842D009200BB0C2
:1007C400BDE8F08F0020CCE7D4F804800834B7E704
:1007D400022B9FDC130CD9B212048DF825300223AE
:1007E40004EB810407928DF8243093E7BBF1000FEA
:1007F40002D0002840F0B080043498E7BBF1000F29
:1008040026D1B0B194E80C00991C4FEAD272D5D02D
:1008140005F158010133069100F09480201DFFF783
:10082400D9FD06AB01462846AFF30080002840F00E
:10083400B88008347BE707A9484600F0F3FA00289B
:10084400BCD1019B002B5CD108200BB0BDE8F08F1C
:100854000D2148462F6AFFF7DBFE8742E9D1AB6AD8
:100864009C42E6D12046FFF7E9FC0F2102464846A8
:10087400FFF7F4FE48462A460021FFF7EFFE072063
:100884009DE70D2148462F6AFFF7C2FE874248D0F4
:100894002368002B85DA043483E7029B3BB305F11C
:1008A4005803271DCDF810B0DDF80C80A346DDF801
:1008B40008A01C46059602E0B245B04616D038465C
:1008C4000694FFF787FD06AB014600222846AFF3E6
:1008D400008008F1010604370028EDD0029B5C4635
:1008E4004345DDF810B0059ED2D100E05C46484691
:1008F4000D21FFF78DFE069B2862AC626B62062019
:100904005DE70F214846FFF783FE0E210246484665
:10091400FFF7A4FE48462A4A0F21FFF79FFE07204F
:100924004DE7AB6A9C42B3D1042202990027A31875
:10093400A962EF622A636B632368BB421FDB012356
:1009440001932EE748460D21FFF762FE2862069BBD
:100954006B62AC62062032E72046FFF76FFC04347A
:100964000646AC632846AFF3008000283FF426AF68
:10097400484632460F21FFF771FE07201FE708465D
:10098400013004EB8000FFF759FC0F210246484672
:10099400FFF764FE48462A463946FFF75FFE072004
:1009A4000DE707460D214846FFF732FE022F286265
:1009B400CDD12B46069A43F82C2F6B62C9E700BFB2
:1009C4000000000000238FE601238DE602238BE65E
:1009D400F0B50446C5B004290DD8DFE801F057038B
:1009E4000C310F00012B4FEA124695B266D17219F1
:1009F400102A40F29F80022045B0F0BD002BFAD1AE
:100A0400102AF8D82368D80600F1C98022AE3046EF
:100A1400019200F077F9A06B019A0023012505FAF1
:100A240003F1114203D00168043046F82310013366
:100A3400042BF4D1A063304600F05AF90020DBE720
:100A4400032BD8D1150C97B2EB19102BD3D82368EC
:100A54001E0700F1B88022AE30467F0000F026F970
:100A640006EBC5027B1EA56B57B12946043A51F823
:100A7400040B013B42F8040F581CF8D105EB870521
:100A84003046A56300F0F0F80020B5E7002BB2D1A2
:100A9400A56B97B2201D012606FA03F1394203F132
:100AA400010302D0296804350160102B00F1040011
:100AB400F2D112F400503BD1A5639DE7052B9AD1E6
:100AC4007719202F97D80F2E65D92F46002D48D19E
:100AD4002A460027002AA06B71DD00EBC202014602
:100AE40044A800EBC6008C3851F8045B914240F8EE
:100AF400045FF9D1084697B13246102E44A938BF95
:100B0400102201EBC202A2F5C4727900043A00EB90
:100B1400810150F8045B814242F8045FF9D1012B52
:100B240047D00F2EA16332D917B102A800F094F870
:100B3400002061E70F2E3FF65EAF00272268D10741
:100B44000DD522F00101052B21600193204652D0DE
:100B540022F0030240F8482B00F072F8019B002FAA
:100B640051D02268510736D4012B3ED00F2E06D81F
:100B740022A8019300F06CF8019B002FA8D002A8D2
:100B8400019300F06DF8019BC6F11002A2E722A8C0
:100B940000F05AF8C8E7102FCFD9103FCEE723F062
:100BA4001003236004F5E870019200F0ABF8019A99
:100BB4002CE70431A16322A800F03EF8B8E7002F27
:100BC4009AD10146ABE723F00803236004F5A8702B
:100BD40000F06CF83FE7204622F0040240F8D02BE6
:100BE400019300F03DF8019BBEE722A8019300F0B9
:100BF40027F8019BC8E741F0020140F8481B00F0C8
:100C040027F8019BABE7012B03D00F2E3FF660AF13
:100C1400AEE722A8019300F013F8019B58E700BF48
:100C240000F1340191E838009C46A6464CF8045D76
:100C340090E8FF0FE54600BD90EC210B704700BF24
:100C440080EC210B704700BF90EC200B704700BF75
:100C540080EC200B704700BFD0EC200B704700BF26
:100C6400C0EC200B704700BFF0EC0201F0EC021165
:100C7400F0EC0221F0EC0231F0EC0241F0EC025114
:100C8400F0EC0261F0EC0271F0EC0281F0EC029104
:100C9400F0EC02A1F0EC02B1F0EC02C1F0EC02D1F4
:100CA400F0EC02E1F0EC02F1704700BFE0EC02016D
:100CB400E0EC0211E0EC0221E0EC0231E0EC024154
:100CC400E0EC0251E0EC0261E0EC0271E0EC028144
:100CD400E0EC0291E0EC02A1E0EC02B1E0EC02C134
:100CE400E0EC02D1E0EC02E1E0EC02F1704700BF7D
:100CF400B0FC0181B0FC0191B0FC01A1B0FC01B1D8
:100D0400704700BFA0FC0181A0FC0191A0FC01A1DF
:100D1400A0FC01B1704700BFEC4600B52DE90050BE
:100D24002DE9FF1F4FF000032DE90C0001A9FFF787
:100D3400E7FBDDF840E012B0704700BFEC4600B5B9
:100D44002DE900502DE9FF1F4FF000032DE90C00A1
:100D540001A9FFF70FFCDDF840E012B0704700BFB7
:100D6400EC4600B52DE900502DE9FF1F4FF00003BC
:100D74002DE90C0001A9FFF71FFCDDF840E012B0DB
:100D8400704700BFEC4600B52DE900502DE9FF1F68
:100D94004FF000032DE90C0001ABFFF7E1FBDDF898
:100DA40040E012B0704700BFEC4600B52DE900509A
:100DB4002DE9FF1F4FF000032DE90C0001AAFFF7F6
:100DC4005BFCDDF840E012B0704700BF037A1BB94A
:100DD400437A43B9B02070475A1E036802721A025C
:100DE4000260180E70474268013B10B443721368E6
:100DF4000321141D01721A024460026010BC180E13
:100E0400704700BF00B585B003AA002300921946BD
:100E14000C22FFF7E3FB039805B05DF804FB00BF69
:100E2400F0E700BF2DE9F04306460D4685B04FF0CC
:100E340000082846FFF7CAFFB028044600F0B48033
:100E440020F07F0313F0FF0320D000F0F003802B89
:100E54007AD0902B35D0A02B48D0B02B5CD0C02BAF
:100E640000F0898000F0F803D02B0BD100F00702CA
:100E7400013242F40022052301213046FFF7A8FD88
:100E84000028D6D0092005B0BDE8F0830DF10C0987
:100E940019468700CDF800900D223046FFF79EFBDF
:100EA400FFB2039B043760064CBFDF1BFF1800230F
:100EB400CDF8009019460D2230460397FFF7B4FB96
:100EC400B7E700F00D030D2BDCD003AF002300F0D7
:100ED4000F02194600973046FFF780FB0023009766
:100EE40019460D223046FFF79FFBA2E7C2434FF499
:100EF4007F6302F0070243FA02F2010702EA0302E7
:100F04004FF0000348BF42F4804219463046FFF7D1
:100F14005FFD0028B6D18CE7B1284AD0B22853D05F
:100F2400B32800F0818000F0FC03B42BAAD000F0B9
:100F340007020132012342F4002219463046FFF72A
:100F440047FD00289ED174E72846FFF73FFF24029F
:100F54002043B0F5004F95D004010023A2B21946F6
:100F64003046FFF735FD00288CD114F4004F18BF2C
:100F74004FF001085DE7C62862D0C7286CD000F0A6
:100F8400F803C02B7BD0C82800F09180C9287FF4D7
:100F940079AF2846FFF71AFF020300F00F0002F4AE
:100FA40070220130024366E7B8F1000F6ED00020D2
:100FB40069E72846FFF70AFF024600283FF462AFBC
:100FC40010F0F003B9D05DE700230DF10C090D22F8
:100FD4001946CDF800903046FFF700FB2846FFF78E
:100FE400F5FE02064FF002040CD5039B00F07F00CF
:100FF400A040034428460393FFF7E8FE030604F1E8
:101004000704F2D4039B00F07F0000FA04F203F516
:10101400017400231444CDF8009019460D22304683
:101024000394FFF701FB04E72846FFF7CFFE010313
:1010340000F00F0001F47021421C01230A437CE7F5
:101044002846FFF7C3FE010300F00F0001F47021EE
:10105400421C03230A4370E72846FFF7B7FE024603
:1010640000283FF40FAF10F0F0037FF40BAF04211E
:101074003046FFF7ADFC00287FF404AFD9E600F05A
:101084000F020132032342F4202256E703AC434605
:101094000E22414600943046FFF7A0FA00943046F1
:1010A40043460F224146FFF7BFFA4046EBE6284687
:1010B400FFF78CFE00F0F00200F00F031032013352
:1010C40043EA0232D7E600BF10B5C36C84B00320F4
:1010D4005A688DF80C00DC7912020833084601A91D
:1010E40001928DF80D400293FFF79CFE04B010BDF1
:1010F40008B5FFF795FE806C08BD00BF08B5FFF783
:101104008FFEC36CD87903EB8000083008BD00BFA4
:1011140008B50EF0D7F800BF08B5FFF7F9FF00BF18
:10112400844641EA000313F0030349D1403A23D330
:101134000B6803604B6843608B688360CB68C36053
:101144000B6903614B6943618B698361CB69C3613B
:101154000B6A03624B6A43628B6A8362CB6AC36223
:101164000B6B03634B6B43638B6B8363CB6BC3630B
:1011740040304031403ADBD230320BD30B6803604D
:101184004B6843608B688360CB68C3601030103158
:10119400103AF3D20C3205D351F8043B40F8043B27
:1011A400043AF9D2043208D0D2071CBF11F8013B2B
:1011B40000F8013B01D30B8803806046704700BFF1
:1011C400082A13D38B07B1D010F00303AED0C3F1B8
:1011D4000403D21ADB071CBF11F8013B00F8013BE2
:1011E400A4D331F8023B20F8023B9FE7043AD9D359
:1011F400013A11F8013B00F8013BF9D20B78037076
:101204004B7843708B7883706046704770B50F4E8F
:101214000F4D761BB61018BF002405D0013455F8C5
:10122400043B9847A642F9D10A4E0B4D0EF032F911
:10123400761BB61018BF002406D0013455F8043BC1
:101244009847A642F9D170BD70BD00BFD8F500081B
:10125400D8F50008E0F50008D8F5000870B4840754
:1012640046D0541E002A41D0CDB2034602E0621E8D
:10127400E4B3144603F8015B9A07F8D1032C2ED982
:10128400CDB245EA05250F2C45EA054519D9264670
:1012940003F11002103E0F2E42F8105C42F80C5C71
:1012A40042F8085C42F8045C02F11002F2D8A4F19E
:1012B400100222F00F0204F00F041032032C134426
:1012C4000DD91E462246043A032A46F8045BFAD88E
:1012D400221F22F003020432134404F003042CB14D
:1012E400C9B21C4403F8011BA342FBD170BC704774
:1012F40014460346C2E700BF024B13B1024800F094
:1013040005B87047000000001D13000800230146C3
:101314001A46184600F014B838B5074D074C2C1B74
:10132400A41005D0013C55F8043D9847002CF9D190
:10133400BDE838400EF0B4B8E4F50008E0F5000864
:101344002DE9F047254C064625688846D5F84841DE
:1013540092469946C4B360681F2817DC411C76B1D5
:1013640004EB8003C3F888A0D4F88851012282409A
:101374001543022EC4F88851C3F808911ED0831C6B
:101384006160002044F82380BDE8F087144B03B368
:101394004FF4C870AFF300800446D0B1D5F848319B
:1013A400002784E888003846C5F848410121C4F87C
:1013B4008871C4F88C71002EE1D0D1E7D4F88C3157
:1013C4001A43C4F88C21DAE705F5A674C5F8484138
:1013D400C1E74FF0FF30BDE8F08700BF94F3000889
:1013E4000000000080B400AF00BF054B9B889BB297
:1013F40003F02003002BF8D000BFBD4680BC70472B
:101404000028004080B485B000AF0346FB80002371
:10141400FB730F4B9B889BB2DAB2FB88DBB21340A1
:10142400FB730B4B1B889AB2FB8813409BB2002BB7
:1014340005D0FB7B002B02D00123FB7301E00023CA
:10144400FB73FB7B18461437BD4680BC704700BF56
:101454000028004080B483B000AF0346FB800749F6
:10146400064B9B889AB2FB88DB439BB213409BB22A
:101474008B8000BF0C37BD4680BC704700280040FD
:1014840080B489B000AFF860B96011461A460B46C3
:10149400FB711346BB800023FB76FB68DB78002BD3
:1014A40022D100237B610023FB61BB880333002B23
:1014B40000DA03339B107B61FB79FA6832339B00BB
:1014C40013449B683B610023FB6109E0BB681A6815
:1014D4003B691A60FB690133FB61BB680433BB6081
:1014E400FA697B699A42F1D3FB7E18462437BD46DC
:1014F40080BC704780B489B000AFF860B96013460F
:10150400FB800023FB61FB880333002B00DA0333E9
:101514009B10BB61FB68D3F8D0307B610023FB6177
:1015240009E07B691A68BB681A60FB690133FB61D7
:10153400BB680433BB60FA69BB699A42F1D3BB68E8
:1015440018462437BD4680BC704700BF80B586B0BE
:1015540000AF786039600023FB7400237B610023B3
:10156400FB60FB6843F02003FB603B68DBB203F0E5
:101574001F03DAB2FB6862F38A13FB607B68DB68E3
:10158400FA681A617B68DB681B69FB607B6901335D
:101594007B617B69094A934206D8FB68C3F3401315
:1015A400DBB2012BEED000E000BF032001F0BAFE55
:1015B400FB7C18461837BD4680BD00BF400D0300B4
:1015C40080B483B000AF78607B68DB685B6903F04C
:1015D400010318460C37BD4680BC704780B582B005
:1015E40000AF78607868FFF7EBFF0346012B14BF68
:1015F40001230023DBB218460837BD4680BD00BF77
:1016040080B485B000AF78600023FB607B68DB6842
:101614005B69FB607B68DB689B69FA681340FB606D
:10162400FB6818461437BD4680BC704780B485B04B
:1016340000AF78600023FB737B681B699B68BB6009
:101644003B7AC3F34103DBB2022B09D0032B04D052
:10165400012B02D00323FB7305E00223FB7302E09A
:101664000123FB7300BFFB7B18461437BD4680BCC7
:10167400704700BF80B487B000AF78600023FB756B
:101684000023BB607B681B699B683B617B689B692B
:101694001B68FB603B7CC3F34103DBB2022B04D029
:1016A400BB896FF30A03BB8105E0BB89032262F3A4
:1016B4000A03BB8100BF7B689B69FA681A607B7A66
:1016C40043F001037B727B681B697A681269516875
:1016D400BA68D2431140BA680A435A60FB7D18467F
:1016E4001C37BD4680BC704780B487B000AF7860BB
:1016F40039600023FB740023FB600023BB603B685C
:101704005B78012B0FD13B681B787A6804339B000C
:1017140013449B687B613B681B781A460123934002
:101724009BB23B810EE03B681B787A6814339B00C4
:1017340013445B687B613B681B781A460123934022
:101744009BB27B817B691B68FB607B7B23F07F03FF
:10175400DBB2002B27D13B689B689BB2C3F30A031F
:101764009AB2BB8962F30A03BB813B68DB7803F05E
:101774000303DAB2BB7B62F38303BB733B68DB888E
:10178400DBB203F00F03DAB2FB8962F38913FB8146
:10179400FB7B43F01003FB737B7B43F080037B7381
:1017A400FA687B691A607B681B697A681269D16977
:1017B400BA680A43DA61FB7C18461C37BD4680BC14
:1017C400704700BF80B588B000AF786039600023EF
:1017D400FB770023BB6100237B6100233B613B68F3
:1017E4005B78012B40F0AB803B681B787A6804334C
:1017F4009B0013449B681B687B613B681B787A6879
:1018040004339B0013449B681B693B613B685B6921
:10181400002B09D13B696FF312033B617B8A0122E0
:1018240062F3CC037B8222E03B685B69C3F3120260
:101834003B6962F312033B613B685A693B689B68EE
:1018440013445A1E3B689B68B2FBF3F39BB2C3F389
:1018540009039AB27B8A62F3CC037B823B68DB7810
:10186400012B04D1FB7C012262F34613FB743B6819
:101874001B787A6804339B0013449B683A691A61A5
:101884007B68DB78012B0AD13B681B787A680433C8
:101894009B0013449B683A6812695A6115E03B68DF
:1018A400DB78012B11D03B685B69002B0DD03B68C2
:1018B4001B781A4601239340BB617B681B697A68D5
:1018C4001269516BBA690A435A633B68DB78012B8E
:1018D40014D17B681B699B68FB60FB68C3F30D2311
:1018E4009BB203F00103002B04D1FB7D43F02003E2
:1018F400FB7503E0FB7D43F01003FB75FB7D43F0B8
:101904000403FB75FB7D43F08003FB753B681B7888
:101914007A6804339B0013449B687A691A603B68B5
:10192400DB78012B40F089803B68D9683B681A78E2
:101934003B685B699BB27868FFF7A2FD7DE03B687A
:101944001B787A6814339B0013445B681B687B61C3
:101954003B681B787A6814339B0013445B681B69EB
:101964003B613B685B69002B0DD13B689B68C3F30B
:1019740012023B6962F312033B617B8A012262F328
:10198400CC037B8220E03B685A693B689B68134424
:101994005A1E3B689B68B2FBF3F39BB2C3F3090383
:1019A4009AB27B8A62F3CC037B827B8AC3F3C9033A
:1019B4009BB21A463B689B6803FB02F3C3F3120213
:1019C4003B6962F312033B613B681B787A6814330A
:1019D4009B0013445B683A691A617B68DB78012BCE
:1019E40009D13B681B787A6814339B0013445B6805
:1019F4003A6812695A613B68DB78012B0CD13B6869
:101A04005B79002B04D0FB7D43F02003FB7503E0DE
:101A1400FB7D43F01003FB75FB7D43F00403FB7572
:101A2400FB7D43F08003FB753B681B787A681433B5
:101A34009B0013445B687A691A60FB7F1846203761
:101A4400BD4680BD80B489B000AF786039600023A2
:101A5400FB770023BB6100233B610023BB603B6831
:101A64005B78012B70D17B689B697B617B691B6808
:101A74003B617B691B69BB603B685B69002B09D1D7
:101A84003B7A6FF306033B72BB7A012262F3C40311
:101A9400BB7223E03B685A693B689B689A420ED943
:101AA4003B689A683B685A613B689B68DBB203F009
:101AB4007F03DAB23B7A62F306033B7209E03B68C8
:101AC4005B69DBB203F07F03DAB23B7A62F30603AD
:101AD4003B72BB7A012262F3C403BB72BA687B69AE
:101AE4001A617B68DB78012B09D13B681B787A6823
:101AF40004339B0013449B683A6812695A61FB7C67
:101B040043F00403FB74FB7C43F08003FB743A69E9
:101B14007B691A607B68DB78002B76D13B685B6954
:101B2400002B72D03B681B781A46012393401A4657
:101B3400BB691343BB617B681B697A681269516B8B
:101B4400BA690A435A6360E03B681B787A681433C5
:101B54009B0013445B681B683B613B681B787A6895
:101B640014339B0013445B681B69BB603B685B696F
:101B7400002B0FD13B689B68DBB203F07F03DAB222
:101B84003B7A62F306033B72BB7A012262F3C4031D
:101B9400BB7212E03B689A683B685A613B689B6879
:101BA400DBB203F07F03DAB23B7A62F306033B72E3
:101BB400BB7A012262F3C403BB723B681B787A6868
:101BC40014339B0013445B68BA681A617B68DB7842
:101BD400012B09D13B681B787A6814339B001344AA
:101BE4005B683A6812695A61FB7C43F00403FB7436
:101BF400FB7C43F08003FB743B681B787A681433E6
:101C04009B0013445B683A691A60FB7F18462437CB
:101C1400BD4680BC704700BF80B487B000AF786019
:101C240039600023FB750023FB603B685B78012B64
:101C34001CD13B681B787A6804339B0013449B686F
:101C44003B613B691B68FB60FB7B23F07F03DBB2DA
:101C5400002B03D0FB7B43F04003FB73BB7B43F0BF
:101C64002003BB73FA683B691A6011E03B681B7878
:101C74007A6814339B0013445B683B613B691B68BF
:101C8400FB60BB7B43F02003BB73FA683B691A60BB
:101C9400FB7D18461C37BD4680BC704780B487B0B6
:101CA40000AF786039600023FB740023FB603B685D
:101CB4005B78012B08D13B681B787A6804339B005E
:101CC40013449B687B6107E03B681B787A68143394
:101CD4009B0013445B687B617B691B68FB60BB7B77
:101CE4006FF34513BB733B68DB78032B03D03B686E
:101CF400DB78022B03D1FB7B43F01003FB73FA6800
:101D04007B691A60FB7C18461C37BD4680BC704753
:101D140080B485B000AF78607B681B699B69FB6009
:101D24007B681B69DB69FA681340FB60FB681B0C6A
:101D340018461437BD4680BC704700BF80B485B0D8
:101D440000AF78600B46FB70FB787A6814339B0015
:101D540013445B689B68FB607B681B695B69FA687A
:101D64001340FB60FB6818461437BD4680BC7047BF
:101D740080B485B000AF78607B681B699B69FB60A9
:101D84007B681B69DB69FA681340FB60FB689BB2E4
:101D940018461437BD4680BC704700BF80B487B076
:101DA40000AF786000233B61FB7C43F0C003FB740D
:101DB400BB7C012262F3C403BB743B7C182262F334
:101DC40006033B747B685B6D3A691A617B68DB7858
:101DD400012B16D10023FB607B685B6D7A6802F2ED
:101DE400CC525A617B685B6D1B68FB60FB7B43F0E4
:101DF4008003FB734FF08023FB607B685B6DFA68A4
:101E04001A6000BF1C37BD4680BC704780B485B0E3
:101E140000AF78607B689B7A002B1BD07B681B69C2
:101E24009B68FB603B7B03F00103DBB2002B11D00A
:101E34007B6803F586731B68BB603B7A6FF34103D1
:101E44003B723B7A6FF300033B727B68D3F80C312F
:101E5400BA681A6000BF1437BD4680BC704700BF23
:101E640080B485B000AF7860294B1B687A6812880B
:101E74001344FB607A68FB689A421FD0FB681B79A5
:101E8400002B1BD1234B1B68FA689A4216D0224BB5
:101E94001A68FB689A4202D11F4A7B681360FB6888
:101EA4001A887B681A801A4B1B68FA6812881344D4
:101EB4007A6817490968521A92B25A80144B1B68FF
:101EC4007A6852881344BB60BA687B689A421AD015
:101ED400BB681B79002B16D10F4B1A687B689A429A
:101EE40002D10D4ABB6813607B681A88BB681A80EC
:101EF400074B1B687A6812881344BA680449096856
:101F0400521A92B25A8000BF1437BD4680BC704743
:101F1400E0140020E4140020E814002080B483B00E
:101F240000AF1A4B033323F003031A46184B1A600D
:101F3400174B1B687B607B684FF480521A807B6868
:101F440000225A807B6800221A71114B1B6803F52A
:101F54008053104A13600F4B1B6801221A710D4BFA
:101F64001B684FF480521A800A4B1B684FF480524E
:101F74005A80094B01221A70054B1B68074A1360EB
:101F840000BF0C37BD4680BC704700BFCC040020A6
:101F9400E0140020E4140020EC140020E8140020D5
:101FA40080B584B000AF78607B68002B1FD0134BE2
:101FB4001B687A689A42114B1B687A689A4218D354
:101FC4000F4B1B687A689A4213D27B68083BFB600C
:101FD400FB6800221A710B4B1B68FA689A4202D202
:101FE400084AFB681360F868FFF73AFF02E000BF95
:101FF40000E000BF1037BD4680BD00BFE0140020E4
:10200400E4140020E814002080B487B000AF7860A6
:102014000B467B807B8803339BB223F003037B80D6
:102024007B880B2B01D80C237B807B88B3F5805FE6
:1020340001D9002399E04F4B1B687A689A424D4BB3
:102044001B687A689A4204D34B4B1B687A689A429D
:1020540001D37B6889E07B68083B7B617B69454AE7
:1020640012689B1A7B827B691A887B8AD31A9BB27B
:10207400083B3B827A883B8A9A4201D9002374E068
:102084007A883B8A9A4201D17B686EE0394B1B689F
:102094007A6912881344FB60FB681B79002B31D1E9
:1020A400FB681B887B817A8A7B8813449BB2083344
:1020B4003B81324B1A68FB689A4205D12D4B1A6852
:1020C4003B8913442D4A13602A4B1A683B891344F5
:1020D400FB60FB6800221A71FB687A891A80FB682E
:1020E4007A8A5A807B693A891A80FB681B88B3F51F
:1020F400805F39D01F4B1B68FA68128813443A89F1
:102104005A8031E07B8803F114023B8A9A422BD82F
:102114007A8A7B8813449BB208333B81154B1A6837
:102124003B891344FB60154B1B68FA689A4202D240
:10213400124AFB681360FB6800221A717B691A88D3
:10214400FB681A80FB687A8A5A807B693A891A800C
:10215400FB681B88B3F5805F06D0064B1B68FA68E2
:10216400128813443A895A807B6818461C37BD4646
:1021740080BC7047E0140020E4140020E814002020
:1021840080B487B000AF0346FB80FB88002B01D1ED
:1021940000238FE0FB8803339BB223F00303FB800F
:1021A400FB880B2B01D80C23FB80FB88B3F5805FE5
:1021B40001D900237EE0424B1B681A46414B1B6841
:1021C400D31AFB826FE03F4B1A68FB8A13443B61CE
:1021D4003B691B79002B60D13B691B881A46FB8A3B
:1021E400D31AA3F10802FB889A4256D33B691B8891
:1021F4001A46FB8AD31AA3F10802FB8814339A42C5
:1022040027D3FA8AFB8813449BB20833FB812D4BF6
:102214001A68FB891344BB60BB6800221A713B69CE
:102224001A88BB681A80BB68FA8A5A803B69FA89A3
:102234001A803B6901221A71BB681B88B3F5805F61
:102244000AD0204B1B68BA6812881344FA895A8052
:1022540002E03B6901221A71194B1B683A699A42E0
:1022640018D107E0174B1B68154A126812881344EB
:10227400134A1360124B1B681B79002B05D0104BBB
:102284001A68114B1B689A42ECD10D4B1A680E4B1D
:102294001B689A423B6908330CE00A4B1A68FB8AB4
:1022A40013441B88FB82FA8AFB88C3F580539A4245
:1022B40089DB002318461C37BD4680BC704700BF2D
:1022C400E8140020E0140020E414002080B485B059
:1022D40000AF78600B467B800023FB730023BB8137
:1022E40000237B817B681B8A9AB27B881340BB8165
:1022F4007B689B899AB27B8813407B81BB89002BC6
:1023040005D07B89002B02D00123FB7301E000235D
:10231400FB73FB7B18461437BD4680BC704700BF77
:1023240080B483B000AF78600B467B807B88DB434E
:102334009AB27B681A8200BF0C37BD4680BC7047D6
:1023440080B400AF0C4A0D4B1A600B4BC8330B4AD8
:1023540053600B4B084A1A60094B1B6800221A6031
:10236400074B1B6800225A60054B1B6800229A60C9
:1023740000BFBD4680BC7047F0140020BC1500208F
:10238400B815002080B584B000AF78607B681B7CF2
:10239400072B00F28D8001A252F823F0C12300081C
:1023A4002D24000847240008612400087D24000827
:1023B400B5240008B5240008992400080023FB7301
:1023C400484B1A687B689A4205D1464B1B68DB6808
:1023D400444A13601EE0434B1B68434A136015E0F4
:1023E400414B1B68DB68002B0BD03F4B1B68DA6842
:1023F4007B689A4205D13C4B1B687A68D268DA60E4
:1024040008E0394B1B68DB68374A1360364B1B689E
:10241400002BE5D17B680022DA607968022002F0A3
:1024240061FD00237B604DE00023FB7379682F4836
:1024340000F09AFC7968032002F054FD00237B60CD
:1024440040E00023FB737968294800F08DFC79682B
:10245400022002F047FD00237B6033E0012178680D
:102464000CF0A6F80346FB7397F90F30002B24D128
:102474007B6805221A7420E0012178680CF098F832
:102484000346FB7397F90F30002B18D17B680522A4
:102494001A7414E0012178680CF08AF80346FB737F
:1024A40097F90F30002B0CD17B6809221A7408E0CD
:1024B4000023FB7300237B6004E000BF02E000BF45
:1024C40000E000BF7B68002B06D097F90F30002B8B
:1024D40002D178680CF07AFB97F90F301846103760
:1024E400BD4680BD986F0020946F0020906F00203F
:1024F400886F002080B58CB002AF786039607B684B
:102504001B7C0A2B08D17968304800F02DFC7968CF
:10251400022002F0E7FC55E07B689B6D7B627B68E0
:102524005B6A3B627B68002B02D07B681B6800E01F
:102534000023FB607B680433002B02D07B685B685C
:1025440000E000233B617B681B8BFB837B681B8C57
:10255400BB837B68D3F89030BB617B685B697B612C
:1025640079681B4800F000FC7B689B6F002B04D04B
:102574007B689B6F184600F045FA7B685B6F002B05
:1025840004D07B685B6F184600F03CFA796802203F
:1025940002F0A8FCBB69002B04D0BB696FF00401F6
:1025A400786998473B68002B0CD007F1100107F1BC
:1025B4000C02BB8B0193FB8B00930B46396A786A40
:1025C4000CF068FD00BF2837BD4680BD9C6F00201D
:1025D400886F002080B586B000AFF860B9601346FC
:1025E400FB80FB681B7C002B02D06FF00C03A6E081
:1025F400FB88002B03D100F0B1F90346FB80524B5A
:102604001B687B611EE07B691B8BFA889A4216D19A
:102614007B69002B10D07B691B68002B0CD0BB6836
:10262400002B09D0BB681B68002B05D07B691A6896
:10263400BB681B689A4202D16FF00A037FE07B6992
:10264400DB687B617B69002BDDD1404B1B687B61C0
:102654001EE07B691B8BFA889A4216D17B69002B9A
:1026640010D07B691B68002B0CD0BB68002B09D0F1
:10267400BB681B68002B05D07B691A68BB681B68A4
:102684009A4202D16FF00A0359E07B69DB687B61EF
:102694007B69002BDDD12E4B1B687B611EE07B69BF
:1026A4001B8BFA889A4216D17B69002B10D07B6968
:1026B4001B68002B0CD0BB68002B09D0BB681B68BF
:1026C400002B05D07B691A68BB681B689A4202D14B
:1026D4006FF00A0333E07B69DB687B617B69002B65
:1026E400DDD11C4B1B687B6110E07B691B8BFA8876
:1026F4009A4208D17B691A68BB681B689A4202D166
:102704006FF00A031BE07B69DB687B617B69002B4C
:10271400EBD1BB68002B07D0BB681B68002B03D030
:10272400FB68BA6810681860FB68FA881A83084B5B
:102734001A68FB68DA60064AFB68136000231846CF
:102744001837BD4680BD00BF906F0020886F002001
:10275400986F00209C6F002080B485B000AFF860B3
:10276400B9601346FB716FF0040318461437BD4675
:1027740080BC704780B584B000AF78600B46FB70B6
:102784007B681B7C002B01D0002371E07B681B7CE1
:10279400012B01D17B686BE0032002F083FBF8601E
:1027A400FB68002B01D1002362E07B685A69FB6857
:1027B4005A617B681A8BFB681A83FB6801221A74BE
:1027C4007B681A89FB681A81FB681B8943F0020342
:1027D4009AB2FB681A817B68DA7AFB68DA727B68E2
:1027E4009A7AFB689A727B68002B02D07B681B681C
:1027F40000E00023FA6813601F4B1A687B689A4252
:1028040005D11D4B1B68DB681B4A13601EE01A4B85
:102814001B681A4A136015E0184B1B68DB68002B11
:102824000BD0164B1B68DA687B689A4205D1134BB0
:102834001B687A68D268DA6008E0104B1B68DB68B2
:102844000E4A13600D4B1B68002BE5D17B680022F8
:10285400DA607968022002F045FBFB68084ADA6115
:10286400084B1A68FB68DA60064AFB681360FB6869
:1028740018461037BD4680BD986F0020946F002025
:102884005D270008906F002080B485B000AF7860A9
:102894007B685B6A7A68128D1344FB607B68DB6A31
:1028A4007A68128F1344FA68D31A002B08DB7B680A
:1028B4001A8D7B685A857B68DB6AFA68D31A15E03F
:1028C4007B685A6A7B68DB6AD31A002B03DD7B685A
:1028D40000225A8509E07B68DB6A9AB27B685B6AEE
:1028E4009BB2D31A9AB27B685A85002318461437D0
:1028F400BD4680BC704700BF80B584B000AF78602F
:102904000B467B807B681A8D7B8813449AB27B6864
:102914001A857B681B8D40F66832934203D97B6825
:1029240040F668321A857868FFF7AEFF0346FB600D
:10293400FB6840F2D92293420BDD7B6893F8223086
:1029440043F00203DAB27B6883F8222078680CF043
:102954003DF900BF1037BD4680BD00BF80B483B0D1
:1029640000AF244B1B8801339AB2224B1A80214BAF
:102974001B881BB2002B03DA1E4B4FF480521A80C3
:102984001D4B1B687B6009E07B681A8B194B1B8805
:102994009A4200D1E5E77B68DB687B607B68002BAB
:1029A400F2D1164B1B687B6009E07B681A8B114BD4
:1029B4001B889A4200D1D4E77B68DB687B607B6824
:1029C400002BF2D10E4B1B687B6009E07B681A8BED
:1029D400084B1B889A4200D1C3E77B68DB687B60A5
:1029E4007B68002BF2D1034B1B8818460C37BD467D
:1029F40080BC70472C040020886F00209C6F00204E
:102A0400906F002080B584B000AF78600023FB7322
:102A14000CE07B681B68BB60786800F00FF8034625
:102A24001A46FB7B1344FB73BB687B607B68002BFB
:102A3400EFD1FB7B18461037BD4680BD80B584B00E
:102A440000AF78600023FB737B68002B0ED07B689B
:102A54005B68002B06D07B685B68184606F0A2FE14
:102A64000346FB737968042002F03CFAFB7B1846AA
:102A74001037BD4680BD00BF80B483B000AF78601E
:102A84000B46FB707B68FA785A7400BF0C37BD465E
:102A940080BC704780B584B000AFF860B9607A60DC
:102AA400FB707B68002B03D0786806F07BFE08E09F
:102AB40097F90330002B04D1B868FFF763FC034691
:102AC40000E0002318461037BD4680BD80B586B0AF
:102AD40000AF0346FB717F23FB720023FB600023DE
:102AE4003B61194B1B687B611FE07B695B7CFA7956
:102AF4009A4217D37B695B7CFA7A9A4212D3134BBE
:102B04001A687B691B6BD21AFB689A420AD30F4B73
:102B14001A687B691B6BD31AFB607B693B617B6919
:102B24005B7CFB727B69DB687B617B69002BDCD19E
:102B34003B69002B03D001213869FFF7DBFC00BFA0
:102B44001837BD4680BD00BF886F00208C6F002001
:102B540080B584B000AF00237B600023BB60124BC0
:102B64001B68FB6012E0114B1A68FB681B6BD21ADE
:102B74007B689A4207D30D4B1A68FB681B6BD31A08
:102B84007B60FB68BB60FB68DB68FB60FB68002B59
:102B9400E9D1BB68002B03D00121B868FFF7AAFC78
:102BA40000BF1037BD4680BD9C6F00208C6F002095
:102BB40080B584B000AF0346FB71022002F072F9C5
:102BC400F860FB68002B10D1FFF7C2FF022002F06F
:102BD40069F9F860FB68002B07D1FB791846FFF709
:102BE40075FF022002F05EF9F860FB68002B59D0F3
:102BF400A0220021F868FEF731FBFB6840225A74DA
:102C0400FB6840F66832A3F86E20FB680022A3F844
:102C14007020FB6840F668321A85FB6840F668321B
:102C24005A85FB6800229A72FB68FF22DA72FB68FD
:102C34004FF406721A87FB680622A3F84820FB6843
:102C44000022A3F84420FB680622A3F84620FB6870
:102C54004FF6FF72DA86FB680122A3F8522000F0D7
:102C6400DFF8B860FB68BA685A66FB68BA689A65A8
:102C7400FB68BA68DA64FB68BA689A660C4B1A682F
:102C8400FB681A63FB68002283F83420FB68094A56
:102C9400C3F88420FB68084AC3F89420FB68002228
:102CA40083F89D20FB6818461037BD4680BD00BFE1
:102CB4008C6F0020992A000800DD6D0080B500AFFC
:102CC4004020FFF775FF0346184680BD80B483B0EB
:102CD40000AF786039607B683A68C3F8842000BF2D
:102CE4000C37BD4680BC704780B483B000AF7860B9
:102CF40039607B683A68DA6100BF0C37BD4680BC36
:102D0400704700BF80B582B000AF78607B681B7CE1
:102D1400002B24D07B681B7C0A2B20D07B681B7C77
:102D2400012B1CD07B68DB6F002B07D07B68DB6F2B
:102D3400184606F037FD7B680022DA677B685B6F14
:102D44001846FFF75FFE7B689B6F1846FFF75AFE35
:102D54007B6800225A677B685A6F7B689A6700BF5A
:102D64000837BD4680BD00BF80B582B000AF786033
:102D740039607B681A683B689A4205D17B681B6896
:102D8400DA687B681A601EE07B681B68234A13605C
:102D940015E0224B1B68DB68002B0BD01F4B1B6814
:102DA400DA683B689A4205D11C4B1B683A68D268C2
:102DB400DA6008E0194B1B68DB68184A1360174B8C
:102DC4001B68002BE5D13B680022DA603868FFF706
:102DD40099FF3B681B7C0A2B16D03B681B7C012B9C
:102DE40012D03B6893F8223003F00103002B0BD080
:102DF4003B6893F8223043F00203DAB23B6883F86D
:102E0400222038680BF0E2FE3B681B7C012B3B68F8
:102E140000221A7400BF0837BD4680BD946F00209D
:102E240080B400AF064B1A68064B1B681344044A6F
:102E34001360034B1B681846BD4680BC704700BF37
:102E4400300400208C6F002080B584B000AF0346AE
:102E54003960FB80386809F05DFDF860FB68002B81
:102E64000DD0FB681B8D002B09D0FB681B8D283B04
:102E74007B817A89FB88934228BF1346FB80FB88B9
:102E840018461037BD4680BD80B500AF0F4B1B7888
:102E9400DBB2012B10D10E4B1B78012B01D103F0B7
:102EA400A3FF0C4B1B78DBB2012B01D103F01EFCFA
:102EB400064B00221A7006E0044B1B78DBB2013B80
:102EC400DAB2024B1A7000BF80BD00BFC5150020E6
:102ED40004650020C615002080B500AF164B174AC4
:102EE4001A60174B07221A60164A164B1B6843F0E8
:102EF4007F431360144A144B1B686FEA03436FEA61
:102F04001343136003F01AFA07F0AAF8FFF718FA4C
:102F14000E4B1B78DBB20133DAB20C4B1A700C4B3C
:102F24004FF4CA5200210B4803F0A4FC084808F0EF
:102F340053FB00BF80BD00BF14E000E03F19010057
:102F440010E000E01CED00E020ED00E0C5150020DD
:102F5400BC640020ADE4000880B500AF094B0A4A08
:102F64001A60084B1B68094A1360064B1B68012250
:102F74005A71044B1B68184603F094FAFFF784FF58
:102F840000BF80BDCC64002054630020C8640020CE
:102F940080B584B000AF78600CF09CF9F8607B6871
:102FA400094AA2FB03239B09BB6000BF0CF092F902
:102FB4000246FB68D21ABB689A42F7D3002318462C
:102FC4001037BD4680BD00BFD34D621090B587B0A9
:102FD40000AF0346FB71FA79704913465B00134452
:102FE400DB000B4404331B68FB60FB68002B00F020
:102FF400D1806B4B1B78DBB20133DAB2684B1A70A9
:10300400684B1B68002B09D1FA7913465B00134403
:10301400DB00624A1344634A1360B8E0614B1B68E7
:103024007B61FB683B61AEE03A697B695B68D31AFC
:103034003B613B69002B7EDA7B695B69002B28D0FE
:103044007B695969FA7913465B001344DB00534AE0
:1030540013440B61FA797B695969504813465B0044
:103064001344DB00034414331960FA794B491346C3
:103074005B001344DB000B4410337A691A60FA795D
:1030840013465B001344DB00444A1A447B695A61CB
:103094001DE0FA79434B1968404813465B0013441A
:1030A400DB000344103319603E4B1968FA79134668
:1030B4005B001344DB00394A13444B61FA7913462D
:1030C4005B001344DB00354A1344364A1360FA7933
:1030D400F97932480B465B000B44DB0003441033A0
:1030E4001B6859683B6919442C4813465B00134418
:1030F400DB00034404331960FA79284913465B0062
:103104001344DB000B4410331968FA79234813463F
:103114005B001344DB00034410331B685868FA79DE
:103124001E4C13465B001344DB00234404331B682A
:10313400C31A4B602BE03B69002B21DB7B691B69C5
:10314400002B1DD1FA79154913465B001344DB00AB
:103154000B4414337A691A60FA7913465B001344FA
:10316400DB000E4A1A447B691A61FA7939690B4803
:1031740013465B001344DB0003440433196006E088
:103184007B691B697B617B69002B7FF44DAFFFF783
:103194007BFE00E000BF1C37BD4690BDC815002073
:1031A400C5150020F815002080B584B000AF034693
:1031B400FB71FA7913465B001344DB002C4A134479
:1031C400FB602C4B1B78DBB20133DAB2294B1A704B
:1031D400FB685B69002B07D1FB681B69002B03D1DB
:1031E400254B00221A603DE0FB685B69002B14D17B
:1031F400FB681B69204A13601F4B1B6800225A613D
:10320400FB681B69FA6812695168FA6852680A44D3
:103214005A60FB6800221A6124E0FB681B69002BDA
:1032240007D1FB685B6900221A61FB6800225A61BE
:1032340018E0FB685B69FA6812691A61FB681B692C
:10324400FA6852695A61FB681B69FA681269516825
:10325400FA6852680A445A60FB6800221A61FB68E3
:1032640000225A61FFF710FE00BF1037BD4680BD33
:10327400C8150020C5150020F815002080B582B0BF
:1032840000AF1B4B1B687B6027E07B685B78002BDF
:103294000BD17B681B781846FFF786FF7B680122F9
:1032A4009A707B68DB68984714E07B685B78012B35
:1032B40010D17B681B781846FFF776FF7B689A6805
:1032C4007B685A607B681B781846FFF77FFE7B6833
:1032D400DB689847064B1B687B607B68002B03D038
:1032E4007B685B68002BD0D000BF0837BD4680BD2B
:1032F400F815002080B500AF074B1B78DBB2012B1B
:1033040006D9064B01221A70054B01221A7001E0FE
:10331400FFF7B4FF00BF80BDC51500200465002081
:103324000665002080B485B000AF78600023FB60A0
:103334007A6813461B019B1ADB001A460A4BA3FB4F
:103344000213D21A520813449B08BB60FB68013372
:10335400FB60FA68BB689A4200D8F7E700BF1437ED
:10336400BD4680BC704700BF25499224B0B588B0E3
:1033740002AF786039607B685B689F4A13607B6842
:103384005C689D4B1B681B889BB2184606F0B8FB13
:1033940003461B0A9BB203F00F039B002344974A86
:1033A4001360954B1B681B889BB2184606F0A8FB5C
:1033B40003461B0A9BB203F00F039BB29B009BB214
:1033C4005B429BB21BB21946786806F07DF903464E
:1033D400002B03D17B681B89132B03D8786806F074
:1033E400E1F994E2844B1B6810333968184603F002
:1033F4007BFD0346002B0FD17F4B1B681C694FF0EC
:10340400704006F0A3FB03461C404FF0604006F0FA
:103414009DFB03469C4203D1786806F0C3F976E22B
:10342400764B1B689B899BB2184606F069FB0346E2
:103434001B0B9BB2BB72BB7A9BB21A469203D31A84
:103444009B009BB21BB21946786806F03DF903460F
:10345400002B03D0786806F0A5F958E2674B1C6886
:10346400664B1B681B889BB2184606F049FB034653
:103474002380624B1C68614B1B685B889BB21846B7
:1034840006F03EFB034663805C4B1C685B4B1B6889
:103494005B68184606F05AFB034663606368584A43
:1034A4001360564B1C68554B1B689B68184606F006
:1034B4004DFB0346A360A368524A13604F4B1C683C
:1034C4004E4B1B68DB899BB2184606F019FB03467A
:1034D400E3814A4B1B689B899BB2184606F010FB9C
:1034E4000346DBB203F03F03DAB2474B1A707B6842
:1034F4001A89454B1B7803F00303002B14BF0123E7
:103504000023DBB29BB213449AB2404B1A800023CF
:103514003B613F4B1B687B6131E07B691A8C374B05
:103524001B681B889BB29A4224D17B691A8B334B4C
:103534001B685B889BB29A421CD17B695A682E4BEC
:103544001B68DB689A4215D17B691A682A4B1B6891
:103554001B699A420ED13B69002B14D07B69DA684F
:103564003B69DA602A4B1A687B69DA60284A7B690E
:10357400136008E07B693B617B69DB687B617B6985
:10358400002BCAD100E000BF7B69002B79D1214B0D
:103594001B687B6127E07B691A8C184B1B681B88AE
:1035A4009BB29A421CD17B691A8B144B1B685B88B3
:1035B4009BB29A4214D17B695A680F4B1B68DB6833
:1035C4009A420DD17B691A680B4B1B681B699A429E
:1035D40006D1786900F07AFA786806F0E3F896E1A3
:1035E4007B69DB687B617B69002BD4D100233B6161
:1035F400094B1B68FB6041E01416002010160020E4
:10360400181600201C160020201600202216002068
:10361400886F00209C6F0020906F0020FB68002BB7
:103624000AD0FB681B68002B06D0FB681A68984B0D
:103634001B681B699A421CD1FB681A8B954B1B684B
:103644005B889BB29A4214D13B69002B0AD0FB6879
:10365400DA683B69DA60904B1A68FB68DA608E4A74
:10366400FB681360F86800F05FF9786806F09AF870
:103674004DE1FB683B61FB68DB68FB60FB68002B8A
:10368400CCD17B69002B00F01581844B00221A6099
:103694007B681A89814B9A817B685B687F4A936057
:1036A4007E4A7B6853607B4B1B687C4A13617C4B6E
:1036B40000221A607B4B00221A707B69DB6F002B9F
:1036C40028D07B69D3F88430002B0CD07B69D3F8E5
:1036D40084407B6958697B69DA6F00237969A04764
:1036E4000346FB720AE00023FB727B69DB6F002B4D
:1036F40004D07B69DB6F184606F054F897F90B3059
:10370400002B03D17B690022DA6703E0786806F0B6
:1037140049F8FCE0644A7B691360786900F00AFAAE
:103724000346FB72604B00221A6097F90B3013F1C9
:10373400050F00F09F805B4B1B7803F00803002B00
:1037440016D07B69D3F89030002B08D07B69D3F86E
:1037540090307A6952696FF005011046984779698B
:103764005248FFF701FB7969022001F0BBFB81E0BD
:103774004C4B1B7803F01003002B08D079694B489D
:10378400FFF7F2FA7969022001F0ACFB72E0002342
:10379400FB727B69B3F86C30002B13D07B69D3F8D0
:1037A4008030002B0CD07B69D3F880307A69506963
:1037B4007A69B2F86C20796998470346FB7201E094
:1037C4000023FB72364B1B68002B33D0384B1B781D
:1037D40003F00803002B08D0314B1B68304A1268F1
:1037E400527B42F00102D2B25A737B69D3F884301F
:1037F400002B0CD07B69D3F884407B695869284B33
:103804001A6800237969A0470346FB720AE0002383
:10381400FB72234B1B68002B04D0214B1B681846FA
:1038240005F0C0FF97F90B30002B03D01C4B1A682E
:103834007B69DA671B4B1B7803F02003002B12D043
:103844007B69D3F88430002B0BD07B69D3F8844098
:103854007B695869002300227969A0470346FB72FB
:1038640001E00023FB7297F90B30002B02D1786939
:103874000BF0ACF9094B5B68002B48D0074B5B6835
:10388400184605F08FFF054B00225A603FE000BF49
:103894001416002010160020906F0020FC15002044
:1038A4002816002024160020A06F0020886F002016
:1038B40020160020174B1B689B899BB2184606F004
:1038C4001FF9034603F00403002B1DD1124B1868A3
:1038D400124B1B881A46124B1B68D118114B1B68DC
:1038E40003F110040F4B1B6803F10C05094B1B6813
:1038F4005B889BB2074A1268128892B201920093C5
:103904002B4622460BF0C6FB786805F04BFF1837B0
:10391400BD46B0BD101600201C1600202216002043
:103924001816002014160020B0B586B002AF7860D7
:103934005F4B1B7803F01003002B1FD05D4B1B68FB
:10394400581C5D4B1B881A465C4B1B68D1185C4B9A
:103954001B6803F110045A4B1B6803F10C05594B07
:103964001B685B889BB2574A1268128892B2019214
:1039740000932B4622460BF08DFB94E04C4B1B78B6
:1039840003F00203002B00F08E807B685B7C1846FA
:10399400FFF70EF9F860FB68002B02D14FF0FF33FC
:1039A40082E0474B1B681033002B03D0444B1B6849
:1039B4001B6900E00023FA6813607B681A8BFB68BC
:1039C4001A833F4B1B680C33002B03D03C4B1B6802
:1039D400DB6800E00023FA6853603A4B1B681B88DD
:1039E4009AB2FB681A84FB6803221A74334B1B686F
:1039F4005A1CFB685A62FB685A6AFB68DA62314BEC
:103A04001B68DB899AB2FB68A3F85C20FB68B3F8F7
:103A14005C20FB68A3F85420284B1B685A1EFB68E3
:103A24001A667B685A69FB685A617B68DA69FB68C5
:103A3400DA617B681A8940F2991313409AB2FB68E1
:103A44001A81214B1A68FB68DA601F4AFB6813600D
:103A5400F86801F077F8FB681A8FFB68043319469D
:103A64001046FFF7F1F903461A46FB681A8701234B
:103A7400019300230093122300220021F8680AF026
:103A8400DFFD0346FB7297F90B30002B06D00021B3
:103A9400F868FEF72FFD97F90B3005E0F8680BF096
:103AA40095F8034600E0002318461037BD46B0BD24
:103AB400201600201C1600202216002018160020B4
:103AC4001416002010160020886F002080B582B0E4
:103AD40000AF7860154B1B881A46154B1B681A44B7
:103AE4007B685B6AD31A002B07DD104B1B881A46D0
:103AF4000F4B1B681A447B685A620C4B1B88002BC3
:103B04000BD07B6893F8223043F00203DAB27B686F
:103B140083F8222078680BF059F878680BF056F88F
:103B2400034618460837BD4680BD00BF2216002054
:103B340018160020B0B586B002AF78600023FB737E
:103B44000023BB73A44B1B7803F00403002B37D072
:103B54007B681B7C022B08D17B689A6D9F4B1B688A
:103B64009A4215D10123FB7312E09D4B1A687B68BE
:103B74005B6AD31A002B0BDB994B1A687B685B6A70
:103B84007968098D0B44D31A002B01DC0123FB73E4
:103B9400FB7B002B12D0934B1B7843F00803DAB263
:103BA400904B1A707B6893F8223023F00103DAB249
:103BB4007B6883F822206FF005031DE300231BE3D9
:103BC400854B1B7803F00203002B15D07B681B7C0C
:103BD400022B11D07B681B7C032B0DD07B6893F8E0
:103BE400223043F00203DAB27B6883F8222078683B
:103BF4000AF0ECFF0023FFE27B4B1A687B681A6330
:103C04007B68002283F89D20786800F09BFF7B6826
:103C14001B7C023B072B00F2DF8201A252F823F047
:103C2400453C0008FD3D00081F3F0008533F0008C5
:103C3400794000081F3F00081B410008AF410008FD
:103C4400654B1B7803F01003002B00F09F80624B40
:103C54001B7803F00203002B00F098807B689B6FB5
:103C64001B695B68184605F071FF03465A1C5B4BE1
:103C74001B689A4240F08A807B68B3F86E30013347
:103C84009AB27B68A3F86E20554B1B685A1C7B685C
:103C94005A627B685A6A7B68DA62504B1A687B689E
:103CA400DA64524B1B68DB899AB27B68A3F85C2008
:103CB4004B4B1B685A1E7B681A667B6804221A7475
:103CC4007B681A8F7B68043319461046FFF7BCF8EB
:103CD40003461A467B681A877B681B8F1A46920034
:103CE40013445B009AB27B68A3F854207B68B3F852
:103CF4005230012B04D17B681B8F5B009BB201E027
:103D04007B681B8F7A68A2F852307B68B3F87030F6
:103D1400013B9AB27B68A3F870207B689B6FBB6001
:103D2400BB681A687B689A677B689B6F002B04D119
:103D34007B684FF6FF72DA8606E07B680022DA863B
:103D44007B68002283F84A20B868FEF777FE7B6818
:103D5400D3F88830002B0AD07B68D3F888307A688F
:103D640050690022796898470346BB7301E0002339
:103D7400BB737B6893F8223043F00203DAB27B68AA
:103D840083F8222078680AF021FF27E2124B1B787F
:103D940003F01003002B00F02182104B1868144B21
:103DA4001B881A460E4B1B68D118124B1B6803F173
:103DB4001004104B1B6803F10C050C4B1B685B884B
:103DC4009BB20A4A1268128892B2019200932B465F
:103DD40022460BF05FF901E2201600201C16002099
:103DE40018160020241600208C6F002010160020C6
:103DF4002216002014160020944B1B7803F01003A5
:103E0400002B75D0924B1A687B68DB6CD31A013B8C
:103E1400002B4EDB8E4B1A687B689B6DD31A002BEC
:103E240047DC7B6804221A747B68DB69002B09D0A9
:103E34007B68DB697A685069002279689847034691
:103E4400BB7301E00023BB7397F90E30002B06D03F
:103E540001217868FEF74EFB6FF00403CCE17B6828
:103E6400B3F85230BB81786800F0D6F9BB89012BD6
:103E740004D17B681B8F5B009BB201E07B681B8FC6
:103E84007A68A2F85230734B1B7803F02003002B9E
:103E940041D07B6893F8223043F00203DAB27B68A6
:103EA40083F8222078680AF091FE7B6807221A744E
:103EB40031E0674B1868684B1B881A46674B1B68D0
:103EC400D118674B1B6803F11004654B1B6803F1A1
:103ED4000C05644B1B685B889BB2624A12681288AB
:103EE40092B2019200932B4622460BF0D3F877E16D
:103EF400564B1B7803F00203002B00F071817B68A2
:103F04005B6A5A1E554B1B689A4240F06981786877
:103F14000BF03CF964E100BF62E1786800F07CF9E1
:103F24004C4B1B7803F02003002B00F05B817B6873
:103F340093F8223043F00203DAB27B6883F822203C
:103F440078680AF043FE7B6807221A744AE17868AD
:103F540000F062F93F4B1B7803F02003002B62D082
:103F64003A4B1B7803F01003002B4CD07B689A6DFE
:103F7400374B1B689A4246D17B6893F8223043F052
:103F84000203DAB27B6883F8222078680AF01EFE06
:103F94007868FEF7B7FE344B1A687B689A4205D1FD
:103FA400314B1B68DB68304A13601EE02E4B1B68E4
:103FB4002E4A136015E02D4B1B68DB68002B0BD0D9
:103FC4002A4B1B68DA687B689A4205D1274B1B6829
:103FD4007A68D268DA6008E0244B1B68DB68234AFD
:103FE4001360224B1B68002BE5D17B680022DA604A
:103FF4007B680A221A741E4B1A687B68DA601C4AB2
:104004007B681360F0E07B6893F8223043F002038E
:10401400DAB27B6883F8222078680AF0D7FD7B68DF
:1040240008221A74E0E0094B1B7803F01003002BFC
:1040340000F0DA807B689A6D054B1B689A4240F069
:10404400D3807B6806221A74CEE000BF20160020BD
:104054001C1600202416002022160020181600200A
:104064001416002010160020886F0020946F002082
:104074009C6F0020786800F0CFF8614B1B7803F048
:104084002003002B00F0B2807B6893F8223043F0C9
:104094000203DAB27B6883F8222078680AF096FD7E
:1040A4007868FEF72FFE574B1A687B689A4205D151
:1040B400544B1B68DB68534A13601EE0514B1B686A
:1040C400514A136015E0504B1B68DB68002B0BD082
:1040D4004D4B1B68DA687B689A4205D14A4B1B68D2
:1040E4007A68D268DA6008E0474B1B68DB68464AA6
:1040F4001360454B1B68002BE5D17B680022DA6016
:104104007B680A221A74414B1A687B68DA603F4A5A
:104114007B6813606AE0786800F07EF83C4B1B789B
:1041240003F01003002B63D07B689A6D394B1B6836
:104134009A425DD17868FEF7E5FD324B1A687B68D8
:104144009A4205D12F4B1B68DB682E4A13601EE090
:104154002C4B1B682C4A136015E02B4B1B68DB6847
:10416400002B0BD0284B1B68DA687B689A4205D178
:10417400254B1B687A68D268DA6008E0224B1B681A
:10418400DB68214A1360204B1B68002BE5D17B6858
:104194000022DA607B680A221A741C4B1A687B6856
:1041A400DA601A4A7B68136022E0786800F034F819
:1041B400174B1B7803F01003002B1BD07B689A6D00
:1041C400144B1B689A4215D10D4B1B7843F0100316
:1041D400DAB20B4B1A700DE000BF0CE000BF0AE02E
:1041E40000BF08E000BF06E000BF04E000BF02E03B
:1041F40000BF00E000BF002318461037BD46B0BD25
:1042040024160020886F0020946F00209C6F0020EB
:10421400201600201C160020F0B58BB000AF78608B
:1042240000237B77AA4B1B7803F01003002B00F0CC
:10423400A2827B68B3F85C301A467B685B6E1344D9
:10424400BB617B681A6EA34B1B68D31A002B1BDB64
:104254007B681A6E9F4B1B689A4206D17B685A6E24
:104264009D4B1B68D31A002B0EDB7B685A6E9A4B4E
:104274001B689A4225D1994B1B68DB899AB27B68EB
:10428400B3F85C309A421CD9944B1B68DB899AB210
:104294007B68A3F85C208F4B1A687B681A668E4B88
:1042A4001A687B685A667B68B3F85C30002B08D0C8
:1042B4007B6893F89C30002B03D07B68002283F842
:1042C4009C207B68DA6C844B1B689A4240F08480A3
:1042D4007B680022A3F86C207B685B6E7A68B2F876
:1042E4005C201A44BB699A4240F0B1817B6893F820
:1042F40050300133DAB27B6883F850207B6893F83E
:104304005030022B40F2A3817B689B6F002B00F09E
:104314009E817B6893F8223003F00403002B43D181
:1043240078680AF033FF7B68B3F852207B68B3F8EF
:104334005C309A4208D97B68B3F85C305B089AB267
:104344007B68A3F8542007E07B68B3F852305B081D
:104354009AB27B68A3F854207B68B3F854301A46A9
:104364007B681B8F5B009A4206DA7B681B8F5B00BD
:104374009AB27B68A3F854207B68B3F854207B6816
:104384001B8F194649000B449BB213449AB27B68B5
:10439400A3F852207B6893F8223043F00403DAB286
:1043A4007B6883F8222052E17B68B3F852207B6853
:1043B4001B8F13449AB27B68B3F852309A4240F28E
:1043C40046817B68B3F852207B681B8F13449AB2F2
:1043D4007B68A3F852203AE13F4B1A687B68DB6C98
:1043E400D31A013B002BC0F205813B4B1A687B6852
:1043F4009B6DD31A002B00F3FD807B6893F8223069
:1044040003F00403002B0ED07B6893F8223023F0D2
:104414000403DAB27B6883F822207B68B3F8542063
:104424007B68A3F852207B68002283F84A207B68CB
:10443400B3F94430DB101BB29AB27B68B3F946304F
:104444009BB213449BB21AB27B68A3F84820224B58
:104454001B689AB27B68DB6C9BB2D31A9AB27B68F6
:10446400A3F86C207B68B3F86E207B68B3F86C30DB
:1044740013449AB27B68A3F86E207B68002283F809
:104484005020154B1A687B68DA647B681B7C032B0D
:104494006BD97B68B3F852207B68B3F854309A42E6
:1044A4001ED27B68B3F852207B681B8F13449AB2E8
:1044B4007B68B3F852309A4257D97B68B3F85220DC
:1044C4007B681B8F13449AB27B68A3F852204CE09C
:1044D40020160020181600201C160020101600209C
:1044E4007B68B3F852207B681B8F19467B681B8F4F
:1044F40003FB01F37968B1F8521093FBF1F39BB21B
:104504001344FB827B68B3F85230FA8A9A422CD95E
:104514007B68FA8AA3F8522027E07B689B6F3B6193
:104524007B689B6F1A687B689A673B695B6818466F
:1045340005F088F93B695B68184605F083F9034682
:1045440019467B68B3F870208BB2D31A9AB27B6891
:10455400A3F870203869FEF771FA7B68B3F87030FD
:10456400002B02D07B689B6F002B7B689B6F002B1A
:104574002FD07B689B6F1B695B68184605F0E6FAD1
:1045840004467B689B6F9B891D467B689B6F1B69F8
:104594009B899BB2184605F0B3FA034603F0010366
:1045A400002B0CD17B689B6F1B699B899BB21846BF
:1045B40005F0A6FA034603F00203002B01D0012301
:1045C40000E000232B44E218934B1B68D31A002B02
:1045D400A3DD7B689B6F002B04D17B684FF6FF72D1
:1045E400DA8602E07B680022DA867B68002283F8A0
:1045F400342003E07B680022A3F86C2027E07B686A
:104604005B6F3B617B685B6F1A687B685A673B69C9
:104614005B68184605F016F93B695B68184605F0B7
:1046240011F9034619467B68B3F870208BB2D31A8C
:104634009AB27B68A3F870203869FEF7FFF97B68AB
:10464400B3F87030002B02D07B689B6F002B7B6823
:104654005B6F002B36D0704B1C687B685B6F1B69EB
:104664005B68184605F072FA05467B685B6F9B89A8
:104674001E467B685B6F1B699B899BB2184605F0DD
:104684003FFA034603F00103002B0CD17B685B6FF8
:104694001B699B899BB2184605F032FA034603F066
:1046A4000203002B01D0012300E0002333442B44F8
:1046B400E31A002B06DB584B1A687B689B6DD31AF0
:1046C400002B9CDD7B68DB6B002B54D07B681A6C61
:1046D400514B1B68D31A002B4DDA504B1B689AB20E
:1046E4007B68DB6B9BB2D31A9BB2FB83FA8B7B6830
:1046F400B3F94430DB101BB29BB2D31A9BB2FB83D9
:104704007B68B3F944309AB2FB8B13449BB21AB260
:104714007B68A3F84420B7F91E30002B03DAFB8B27
:104724005B429BB2FB83FA8B7B68B3F946309B10E8
:104734001BB29BB2D31A9BB2FB837B68B3F946309E
:104744009AB2FB8B13449BB21AB27B68A3F846203F
:104754007B68B3F94430DB101BB29AB27B68B3F9BF
:1047640046309BB213449BB21AB27B68A3F848202C
:104774007B680022DA632A4B1B88002B00F0BD8182
:104784007B685A6A274B1B68D31A013B002B74DBE6
:104794007B685A6A224B1B881946224B1B680B44C0
:1047A400D31A0133002B68DC7B685A6A1D4B1B68E3
:1047B400D31A3B621C4B5B687B621B4B5B685B8957
:1047C4001A463B6A9A4231DA174B5B681A893B6A8C
:1047D4009BB2D31AFB810EE07B6A5B891A463B6A63
:1047E4009B1A3B627B6AFA891A817B6A00225A818E
:1047F4007B6A1B687B627B6A5B891A463B6A9A42C6
:10480400EADB3B6A9BB25B429BB21BB21946786AF5
:1048140004F05AFF15E000BF1C1600208C6F002026
:104824002216002018160020FC150020A74B5B68F8
:104834003A6A92B2524292B212B21146184604F047
:1048440043FF7B6A5B68A14A9360A04B9A89A04BA3
:104854001B6899B27B685B6A9BB2CB1A9BB2134408
:104864009AB29A4B9A81994B1B697A68526A984911
:104874000A60974A12685A6012E0954B1A687B687E
:104884005B6AD31A002B0BDA7B6893F8223043F06F
:104894000203DAB27B6883F8222078680AF096F97A
:1048A4008B4B1A687B685B6AD31A002BC0F21881A1
:1048B400874B1A687B685B6A7968098D0B44D31A45
:1048C4000133002B00F30C817B685A6A804B1B6810
:1048D4009A4240F0EE8001237B777C4B9C897B4B92
:1048E4001B699B899BB2184605F00AF9034603F03D
:1048F4000103002B0BD1754B1B699B899BB2184696
:1049040005F0FEF8034603F00203002B01D0012357
:1049140000E000239BB223449AB26E4B1A807B685A
:104924001A8D6C4B1B889A426AD2684B1B699B890F
:104934009BB2184605F0E4F8034603F00103002B8C
:104944001ED0624B1C69614B1B699B899BB2184644
:1049540005F0D6F8034623F03F039DB25B4B1B6979
:104964009B899BB2184605F0CBF8034603F03E033F
:104974009BB22B439BB2184605F0AEF80346A381C5
:104984007B681A8D514B9A81504B1B699B899BB252
:10499400184605F0B5F8034603F00203002B05D0D2
:1049A4004A4B9B89013B9AB2484B9A81474B5A68C0
:1049B400464B9B891946104604F022FE434B9C89C2
:1049C400424B1B699B899BB2184605F099F8034634
:1049D40003F00103002B0BD13C4B1B699B899BB259
:1049E400184605F08DF8034603F00203002B01D0AE
:1049F400012300E000239BB223449AB2354B1A8072
:104A0400344B1B881A46324B1B681A447B685A6223
:104A14007B681A8D2F4B1B88D31A9AB27B681A8530
:104A24007868FDF731FF294B5B681B89002B06D0A2
:104A3400264B5B68284A1360244B00225A60234BA0
:104A44001B699B899BB2184605F05AF8034603F08C
:104A54000103002B06D0214B1B7843F02003DAB26C
:104A64001E4B1A707B6893F8223003F00103002B6D
:104A740015D07B6893F8223023F00103DAB27B6807
:104A840083F822207B6893F8223043F00203DAB2E1
:104A94007B6883F8222078680AF098F84BE07B68FA
:104AA40093F8223043F00103DAB27B6883F82220C2
:104AB40041E07B6893F8223043F00203DAB27B686A
:104AC40083F8222078680AF081F834E0FC1500208D
:104AD4001816002022160020281600202416002074
:104AE4007B6893F8223043F00203DAB27B6883F8E0
:104AF400222078680AF06AF81DE0114B1A687B6876
:104B04005B6AD31A002B0ADB0D4B1A687B685B6A5D
:104B14007968098D0B44D31A0133002B0BDD7B68B4
:104B240093F8223043F00203DAB27B6883F8222040
:104B340078680AF04BF87B7F18462C37BD46F0BDE9
:104B44001816002080B586B000AF78603E4B1B6815
:104B540014333B613C4B1B689B899BB2184604F0A1
:104B6400CFFF03461B0B9BB2052B69D9364B1B6841
:104B74009B899BB2184604F0C3FF03461B0B9BB2F0
:104B8400053B9BB29B00FB810023FB824EE0FB8A2A
:104B94003A6913441B787B737B7B012B04D0022B73
:104BA40006D0002B47D031E0FB8A0133FB823DE085
:104BB400FB8A01333A6913441B78042B3DD1FB8AE9
:104BC4001A1DFB899A4238DCFB8A02333A69134482
:104BD4001B781B021AB2FB8A033339690B441B7816
:104BE4001BB213431BB27B817B8940F2B4529342C4
:104BF40004D87B89002B01D07A8901E040F2B452B9
:104C04007B681A87FB8A0433FB820FE0FB8A01333B
:104C14003A6913441B78002B11D0FB8A01333A699B
:104C240013441B789AB2FB8A1344FB82FA8AFB89E9
:104C34009A42ACD304E000BF02E000BF00E000BF32
:104C44001837BD4680BD00BF1016002080B500AFE8
:104C54001A4A1A4B1B6843F0010313601749174B98
:104C64005A68174B13404B60144A144B1B6823F0CB
:104C7400847323F480331360104A104B1B6823F4AD
:104C8400802313600D4A0D4B5B6823F4FE035360CD
:104C94000A4A0A4B1B6823F0A0531360074B4FF4D6
:104CA4007F029A60054B0022DA6200F00DF8054B92
:104CB4004FF000629A6000BF80BD00BF0010024048
:104CC4000000FFF000ED00E080B500AF00F002F856
:104CD40000BF80BD80B483B000AF00237B6000239D
:104CE4003B60474A464B1B6843F480331360444B94
:104CF4001B6803F400333B607B6801337B603B68D3
:104D0400002B03D17B68B3F5A06FF0D13C4B1B683B
:104D140003F40033002B02D001233B6001E00023A5
:104D24003B603B68012B66D1364A364B1B6843F027
:104D340010031360334A334B1B6823F003031360DF
:104D4400304A304B1B6843F0020313602C4A2C4B4F
:104D54005B6853602A4A2A4B5B685360284A284B95
:104D64005B6843F4806353602549254BDA6A264B1C
:104D74001340CB62224A224BDB6A43F4833343F071
:104D84004403D3621E4A1E4B1B6843F080631360C6
:104D940000BF1B4B1B6803F00063002BF9D0184ABB
:104DA400174B5B6823F47C135360154A144B5B6800
:104DB40043F4E8135360124A114B1B6843F08073A9
:104DC400136000BF0E4B1B6803F00073002BF9D077
:104DD4000B4A0B4B5B6823F003035360084A084BF0
:104DE4005B6843F00203536000BF054B5B6803F04C
:104DF4000C03082BF9D100BF0C37BD4680BC7047AB
:104E0400001002400020024000F0FEFF80B483B096
:104E140000AF00237B8002E07B8801337B807B88AA
:104E2400082BF9D91B4B033323F003037B600023C6
:104E34007B8027E07B88184A002142F82310002356
:104E44003B8015E07B88144A52F823207B681A6063
:104E54007B8811497A6841F823207B880F4A32F80D
:104E640013301A467B6813447B603B8801333B80D4
:104E74007B880B4A32F813303A889A42E2D37B8813
:104E840001337B807B88082BD4D900BF0C37BD4607
:104E940080BC7047501600202C16002098F30008A0
:104EA400ACF3000880B485B000AF0346FB71FB7916
:104EB400082B01D900230EE0FB79094A52F823306C
:104EC400FB60FB68002B05D0FB79FA681268044983
:104ED40041F82320FB6818461437BD4680BC704750
:104EE4002C16002080B485B000AF03463960FB71F6
:104EF4003B68002B0DD03B68FB60FB79074A52F8F6
:104F04002320FB681A60FB790449FA6841F82320DE
:104F140000E000BF1437BD4680BC70472C1600204B
:104F240080B586B000AF7860396000237B613B6850
:104F3400002B7B685B685B68FB60FB689B889BB2AB
:104F4400002B1DD17B685B683B61FB681A687B683A
:104F54005A603B6958687B68083314221946FCF789
:104F6400DFF80121386908F0A1F8386904F06AFC17
:104F740003461A467B6913447B61386904F012FCCA
:104F84007B685B683B6112E03B695B68FB603B6983
:104F9400BB60FB681B683B61B86804F053FC0346C4
:104FA4001A467B6913447B61B86804F0FBFB3B69D8
:104FB400002BE9D13968786800F0A6F8064B1A8806
:104FC4007B699BB2D31A9AB2034B1A807B69184649
:104FD4001837BD4680BD00BFE05C002080B588B0B6
:104FE40000AF7860396000233B610023BB6100237C
:104FF4007B610023FB60264B1B68FB612CE0FB6993
:105004005A697B68DB689A420CD1FB699A697B68B0
:105014001B699A4206D1FB699A897B689B889BB27B
:105024009A4210D0FB680133FB60BB69002B02D1AC
:10503400FB69BB6107E0FB69DA7FBB69DB7F9A42EE
:1050440001D8FB69BB61FB691B68002B01D0FB69BC
:105054007B61FB691B68FB61FB69002BCFD1BB69DA
:10506400002B08D07969B869FFF75AFFB8603A692C
:10507400BB6813443B613A693B689A4202DAFB68B5
:10508400012BB2DC3B6918462037BD4680BD00BF0A
:10509400DC5C002080B584B000AF78603960052006
:1050A400FFF700FFF860FB68002B10D139687868BF
:1050B400FFF794FF02463B689A4203DB0520FFF7A3
:1050C400F1FEF860FB68002B01D1002316E02022DA
:1050D4000021F868FCF7C2F8FB680322DA77094B71
:1050E4001A68FB681A60074AFB681360FB68083398
:1050F400142279681846FCF713F8FB681846103731
:10510400BD4680BDDC5C002080B582B000AF786015
:1051140039600B4B1A687B689A4204D17B681B6820
:10512400074A136003E07B681A683B681A60796871
:105134000520FFF7D7FE00BF0837BD4680BD00BF7E
:10514400DC5C002090B58BB000AF78603960002340
:105154003B620123BB613B685B687B617B695B8865
:105164009BB2184604F0CCFC03461C467B691B88A2
:105174009BB2184604F0C4FC03461B0A9BB203F01E
:105184000F039BB29B009BB2E31A7B827B69DB8893
:105194009BB2184604F0B4FC0346C3F30C039BB261
:1051A400DB003B823B685B687B627B6A00221A708F
:1051B40000225A7000229A700022DA707B6A3A8ABE
:1051C4009A803A8A7B8A13449AB27B6ADA807B6833
:1051D4005B68FB614CE0FB695B68FB607B6A9B88F6
:1051E4009AB2FB689B889BB29A421FD27B6AFA6987
:1051F4001A603B6A002B15D07B6A9B889AB23B6A83
:10520400DB889BB29A42C0F08C807B6ADB889AB2BE
:10521400FB689B889BB29A4200F283803B6A3A689F
:105224001A6028E07B683A685A6024E07B6A9B88AD
:105234009AB2FB689B889BB29A426FD07B6A9B8828
:105244009AB2FB68DB889BB29A4269D33B6A002B13
:1052540009D03B6ADB889AB2FB689B889BB29A426E
:1052640001D00023BB61FB681B68FB61FB683B62E8
:10527400FB69002BAFD1FB69002B17D13B6A002BD4
:1052840011D03B6ADB887B6A9B883B6A3A681A6068
:105294003B6ADB889AB27B6A9B889BB29A4205D0B0
:1052A4000023BB6102E07B683A685A607B689B7F9D
:1052B40003F00103002B2FD0BB69002B2AD07B689D
:1052C4005B685B689B889BB2002B02D00023BB61A8
:1052D40020E07B6A3B627B6A1B68FB6112E0FB692E
:1052E4005B687B623B6ADB889AB27B6A9B889BB271
:1052F4009A4202D00023BB6107E07B6A3B627B6A6F
:105304001B68FB61FB69002BE9D1BB69002B01D051
:105314007B6ADB88BB6914E0002312E000BF00E075
:1053240000BF386804F08EFA03461946074B1A8802
:105334008BB2D31A9AB2054B1A80386804F032FA49
:10534400002318462C37BD4690BD00BFE05C00200A
:1053540090B58BB000AF78600023FB617B685B681D
:10536400BB61BB691B889BB2184604F0C9FB0346AA
:105374001B0A9BB203F00F039B00142B40F00D811A
:10538400BB69DB889BB2184604F0BAFB0346C3F33F
:105394000C039BB2DB00FB82BB695B889BB21846A3
:1053A40004F0AEFB03461C46BB691B889BB218463F
:1053B40004F0A6FB03461B0A9BB203F00F039BB247
:1053C4009B009BB2E31ABB82786804F03BFA034665
:1053D400FB74764B1B881A46FB7C13440A2B10DDA6
:1053E400FB7C1946B869FFF7F9FD0346002B00F072
:1053F400D5806E4B1B881A46FB7C13440A2B00F3A2
:10540400CD806B4B1B683B6217E03B6A5A69BB69F2
:10541400DB689A420CD13B6A9A69BB691B699A4260
:1054240006D13B6A9A89BB699B889BB29A4208D091
:105434003B6AFB613B6A1B683B623B6A002BE4D11D
:1054440000E000BF3B6A002B09D1FB7C1946B86918
:10545400FFF720FE38623B6A002B1CD19EE0BB693B
:10546400DB889BB2184604F04BFB0346C3F30C03E2
:10547400002B10D13B6ADB89184604F041FB03463C
:10548400C3F30C03002B06D03B6A08331422B9691A
:105494001846FBF745FEFB7C9AB2444B1B88134429
:1054A4009AB2424B1A80BB69DB889BB2184604F05F
:1054B40027FB034603F40053002B0CD13B6A9B7F6C
:1054C40043F00103DAB23B6A9A77FA8ABB8A13443F
:1054D4009AB23B6A9A837968386AFFF733FE0346C7
:1054E400002B58D03B6A9B8B14339AB23B6A9A8345
:1054F4003B6A5B685B681B687B623B6A5B685B68F2
:10550400BB613B6A083314221946B869FBF708FEED
:105514003B6A9B8B184604F0DFFA03461A46BB69C4
:105524005A80BB6900229A710022DA71BB69002299
:105534009A720022DA721421B86901F061FD0346FF
:105544001A46BB695A813B6A5B687B600EE07B6AE2
:105554005B68FB606FF01301786A04F0B5F8796A50
:10556400786804F097F9FB681B687B627B6A002B00
:10557400EDD1F969386AFFF7C7FD786804F062F97C
:1055840003461946094B1A888BB2D31A9AB2074BB1
:105594001A807B6806E0002304E000BF786804F00A
:1055A40001F9002318462C37BD4690BDE05C00206D
:1055B400DC5C002080B58CB000AFF860B9607A6024
:1055C400BB681B8DFB8414237B85022200210220EF
:1055D40003F01AFF38623B6A002B02D14FF0FF330D
:1055E400B5E03B6AFA8C5A813B6A5A893B6A1A8154
:1055F400594B033323F003031A463B6A5A603B6A50
:105604005B68FB61FB685B6814221946F869FBF769
:1056140087FDFB69DB889BB2184604F071FA0346E8
:105624003B853B8DC3F30C03BB853B8D03F40053D7
:105634007B83FB681B89143BFB85FB8C143B002B91
:1056440000DA0733DB103B837AE0FA8DFB8C143BE2
:105654009A42D4BF01230023DBB2FB82BB8DC3F388
:105664000C039AB27B8B13433B85FB8A002B03D13B
:105674003B8D43F400533B85FB8A002B03D13B8BCA
:10568400DB009BB200E0FB8DBB82FB6903F11401DC
:105694007B8DBA8AF86804F0BBF903461A467B8D01
:1056A40013447B853B8D184604F016FA03461A46CC
:1056B400FB69DA80BB8A14339BB2184604F00CFAF7
:1056C40003461A46FB695A80FB6900229A7200223B
:1056D400DA721421F86901F093FC03461A46FB6957
:1056E4005A81FB8A002B06D0FB8D14339BB21946DA
:1056F400386A03F085FF00220021022003F084FEB3
:1057040038613B69002B0DD0396A386904F0F0F830
:10571400BB685B697A683969B8689847386904F086
:1057240041F805E0386A04F03DF84FF0FF330EE02D
:10573400FA8DBB8AD31AFB85BA8D3B8B1344BB8588
:10574400FB8D002B81D1386A04F02CF80023184615
:105754003037BD4680BD00BFE45C002080B588B012
:1057640000AF0346FB800023FB610423FB7300238B
:105774007B83A44B002283F87C20A24B002283F875
:105784002D20A04B0022C3F880209E4B002283F8DA
:1057940069209C4B0022C3F884209A4B002283F892
:1057A4007D20984B0022C3F88820964B0022C3F832
:1057B4008C2000F02DF90246924B1A60914B1B6825
:1057C400914A934202D04FF0FF3316E1002000F0DB
:1057D4005DFC07F10F0301220021242000F0C0FA30
:1057E4001E2000F075FB03467B837B8B1B0A9BB258
:1057F400DAB2844B9A73FB8803F00803002B06D0BB
:10580400042000F065FB02467E4BC3F884207D4BE8
:10581400D3F88430DBB2002B09D00223BB7307F129
:105824000E03012212212D2000F09AFA03E0754B99
:105834000022C3F88420062000F04AFB0246714B84
:105844005A60072000F044FB02466E4B9A606D4B91
:1058540000229A610023FB6109E06A4AFB6906336E
:105864009B00134400225A60FB690133FB61FB690E
:10587400032BF2DDFB8803F00203002B26D0614BDF
:105884009B7B012B06D81C2000F022FB02465D4BBB
:105894009A611BE05B4B9B7B032B17D80D2000F018
:1058A40017FB0246574BDA610E2000F011FB02464B
:1058B400544B1A620F2000F00BFB0246514B5A6204
:1058C4001D2000F005FB02464E4B9A62FB8803F054
:1058D4000103002B15D07B8BDBB203F01F03DAB27C
:1058E400484B83F82C20474B93F82C30002B10D1D5
:1058F400464B1B7803F01F03DAB2424B83F82C208B
:1059040007E0424B1B7803F01F03DAB23D4B83F8E8
:105914002C20FB8803F00403002B15D00023FB612B
:105924000EE0FB691033184600F0D2FA0146354AFE
:10593400FB690C339B0013445960FB690133FB6121
:10594400FB690B2BEDDD0FE00023FB6109E02D4A21
:10595400FB690C339B00134400225A60FB6901333A
:10596400FB61FB690B2BF2DDFB8803F40063002B66
:1059740002D000F00BFB0FE00521362000F068FA9E
:1059840003463B833B8B23F400733B833B8B1A46D8
:105994000521362000F074FA012000F077FB002185
:1059A400042000F033FA0246164B1A630021262025
:1059B40000F02CFA78617B6923F47C237B617B699A
:1059C40043F480337B617A690021262000F068FA71
:1059D4000021042000F01AFA38613B6943F4802363
:1059E4003B613A690021042000F05AFA4FF0083272
:1059F40000211E2000F054FA002318462037BD462B
:105A040080BD00BFC46200203001CADE22F4000859
:105A140080B500AF0021002000F0F8F903461846D5
:105A240080BD00BF80B588B000AF78600B46FB70C6
:105A34000023FB770023BB777B681B78FB767B68AE
:105A44005B791A46AB4B33F81230BB837B685B78C7
:105A5400013BA94AC2F88030A74BD3F88030BB760B
:105A6400FB7E042B02D0FB7E072B01D1012300E037
:105A740000237B767B681A789F4B1A737B68DB79EB
:105A8400002B09D19C4B1B6B43F480039A4A13638C
:105A9400BB8BDB08BB8305E0974B1B6B23F48003B4
:105AA400954A13637B681A7A934B5A73924B1A6B19
:105AB4007B681B7A1B0403F4403313438E4A13633D
:105AC4008D4B1B6B1A460021042000F0E9F9BB8BB7
